{"abi":[{"type":"constructor","inputs":[{"name":"storageAddress","type":"address","internalType":"address"},{"name":"initialOwner","type":"address","internalType":"address"}],"stateMutability":"nonpayable"},{"type":"function","name":"chromaCanvas","inputs":[],"outputs":[{"name":"","type":"address","internalType":"contract IChromaCanvas"}],"stateMutability":"view"},{"type":"function","name":"chromaStorage","inputs":[],"outputs":[{"name":"","type":"address","internalType":"contract IChromaStorage"}],"stateMutability":"view"},{"type":"function","name":"owner","inputs":[],"outputs":[{"name":"","type":"address","internalType":"address"}],"stateMutability":"view"},{"type":"function","name":"renderSVG","inputs":[{"name":"tokenId","type":"uint256","internalType":"uint256"}],"outputs":[{"name":"","type":"string","internalType":"string"}],"stateMutability":"view"},{"type":"function","name":"renounceOwnership","inputs":[],"outputs":[],"stateMutability":"nonpayable"},{"type":"function","name":"setCanvas","inputs":[{"name":"canvasAddress","type":"address","internalType":"address"}],"outputs":[],"stateMutability":"nonpayable"},{"type":"function","name":"tokenURI","inputs":[{"name":"tokenId","type":"uint256","internalType":"uint256"}],"outputs":[{"name":"","type":"string","internalType":"string"}],"stateMutability":"view"},{"type":"function","name":"transferOwnership","inputs":[{"name":"newOwner","type":"address","internalType":"address"}],"outputs":[],"stateMutability":"nonpayable"},{"type":"event","name":"OwnershipTransferred","inputs":[{"name":"previousOwner","type":"address","indexed":true,"internalType":"address"},{"name":"newOwner","type":"address","indexed":true,"internalType":"address"}],"anonymous":false},{"type":"error","name":"OwnableInvalidOwner","inputs":[{"name":"owner","type":"address","internalType":"address"}]},{"type":"error","name":"OwnableUnauthorizedAccount","inputs":[{"name":"account","type":"address","internalType":"address"}]}],"bytecode":{"object":"0x60a034620000ee57601f6200267b38819003918201601f19168301916001600160401b03831184841017620000f2578084926040948552833981010312620000ee5760206200004e8262000106565b916001600160a01b0391829162000066910162000106565b16918215620000d6575f80546001600160a01b03198116851782556040519491908416907f8be0079c531659141344cd1fd0a4f28419497f9722a3daafe3b4186f6b6457e09080a31660805261255f90816200011c823960805181818161011a015281816101d101526108fc0152f35b604051631e4fbdf760e01b81525f6004820152602490fd5b5f80fd5b634e487b7160e01b5f52604160045260245ffd5b51906001600160a01b0382168203620000ee5756fe60406080815260049081361015610014575f80fd5b5f3560e01c8063715018a6146107115780638da5cb5b146106ea578063a064f109146106a1578063c87b56dd1461019f578063cc5f2f1014610177578063d12a4c9814610149578063e6b5e237146101065763f2fde38b14610074575f80fd5b34610102576020366003190112610102576001600160a01b03823581811693919290849003610102576100a5610d50565b83156100ec5750505f54826bffffffffffffffffffffffff60a01b8216175f55167f8be0079c531659141344cd1fd0a4f28419497f9722a3daafe3b4186f6b6457e05f80a3005b905f6024925191631e4fbdf760e01b8352820152fd5b5f80fd5b5034610102575f36600319011261010257517f00000000000000000000000000000000000000000000000000000000000000006001600160a01b03168152602090f35b50346101025760203660031901126101025761016861017392356108df565b905191829182610789565b0390f35b5034610102575f3660031901126101025760015490516001600160a01b039091168152602090f35b5034610102576020908160031936011261010257805163e1dc076160e01b81528335818501819052602494905f8387817f00000000000000000000000000000000000000000000000000000000000000006001600160a01b03165afa928315610697575f93610673575b5061021383610da6565b61022461021f836108df565b6123a0565b9361028086519361027b603a868b8101997f646174613a696d6167652f7376672b786d6c3b6261736536342c0000000000008b5261026b8d82519283918686019101610768565b810103601a81018852018661081e565b610ddd565b94815115610661576102978883015160f81c610f44565b82516001101561064f576102b1602184015160f81c611012565b9183516002101561063d576102cc602285015160f81c611153565b9380516003101561062b576102e7602382015160f81c611269565b97815181101561061957509a8a9b9a999a015160f81c6103069061132f565b9451958a51998a99707b226e616d65223a224368726f6d61202360781b828c01528051809260318d0192019161033b92610768565b890190603182017f222c226465736372697074696f6e223a224368726f6d6120697320612066756c9052605182017f6c79206f6e2d636861696e20363478363420696e64657865642d636f6c6f722090526e27232a1711161134b6b0b3b2911d1160891b6071830152519182608083016103b492610768565b01608081017f222c2261747472696275746573223a5b7b2274726169745f74797065223a225490526d3cb8329116113b30b63ab2911d1160911b60a0820152815191828c60ae840192019161040892610768565b0160ae81017f227d2c7b2274726169745f74797065223a2245787072657373696f6e222c227690526630b63ab2911d1160c91b60ce820152815191828b60d5840192019161045592610768565b0160d581017f227d2c7b2274726169745f74797065223a224865616467656172222c2276616c9052643ab2911d1160d91b60f5820152815191828a60fa84019201916104a092610768565b019260fa84017f227d2c7b2274726169745f74797065223a2245796577656172222c2276616c7590526332911d1160e11b908161011a86015261011e94815191828b8884019201916104f192610768565b019384017f227d2c7b2274726169745f74797065223a2250616c65747465222c2276616c75905261013e84015261014292815191828986840192019161053692610768565b7f227d2c7b2274726169745f74797065223a2250616c6574746520436f6c6f72209101928301526b181116113b30b63ab2911d1160a11b610162830152805161016e92909161058c908390858401908a01610768565b019063227d5d7d60e01b908201520361015281018252610172016105b0908261081e565b6105b9906123a0565b81517f646174613a6170706c69636174696f6e2f6a736f6e3b6261736536342c000000848201528151909384926105f7918391603d86019101610768565b810103601d81018352603d0161060d908361081e565b51610173819282610789565b60328d91634e487b7160e01b5f52525ffd5b8b603289634e487b7160e01b5f52525ffd5b8a603288634e487b7160e01b5f52525ffd5b89603287634e487b7160e01b5f52525ffd5b88603286634e487b7160e01b5f52525ffd5b6106909193503d805f833e610688818361081e565b81019061085c565b915f610209565b84513d5f823e3d90fd5b823461010257602036600319011261010257356001600160a01b03811690819003610102576106ce610d50565b6bffffffffffffffffffffffff60a01b60015416176001555f80f35b5034610102575f366003190112610102575f5490516001600160a01b039091168152602090f35b34610102575f36600319011261010257610729610d50565b5f80546001600160a01b0319811682556001600160a01b03167f8be0079c531659141344cd1fd0a4f28419497f9722a3daafe3b4186f6b6457e08280a3005b5f5b8381106107795750505f910152565b818101518382015260200161076a565b604091602082526107a98151809281602086015260208686019101610768565b601f01601f1916010190565b610200810190811067ffffffffffffffff8211176107d257604052565b634e487b7160e01b5f52604160045260245ffd5b6040810190811067ffffffffffffffff8211176107d257604052565b6020810190811067ffffffffffffffff8211176107d257604052565b90601f8019910116810190811067ffffffffffffffff8211176107d257604052565b67ffffffffffffffff81116107d257601f01601f191660200190565b6020818303126101025780519067ffffffffffffffff8211610102570181601f8201121561010257805161088f81610840565b9261089d604051948561081e565b81845260208284010111610102576108bb9160208085019101610768565b90565b919082018092116108cb57565b634e487b7160e01b5f52601160045260245ffd5b6040805163feb923e160e01b8152600480820184905290939260247f00000000000000000000000000000000000000000000000000000000000000006001600160a01b03165f878381845afa968715610d26575f97610d30575b505f829186519283809263e1dc076160e01b825287898301525afa908115610d265761097691610970915f91610d0c575b50610da6565b9261143f565b96906060945f5b878110610aaa5750505050507f30302f737667222077696474683d223130323422206865696768743d223130329394509160c8916108bb935182519586937f3c73766720786d6c6e733d22687474703a2f2f7777772e77332e6f72672f323060208601528401527f34222076696577426f783d22302030203130323420313032342220736861706560608401527f2d72656e646572696e673d2263726973704564676573223e3c7265637420776960808401527f6474683d223130323422206865696768743d2231303234222066696c6c3d220060a0840152610a6a81518092602060bf87019101610768565b82016211179f60e91b60bf820152610a8c82518093602060c285019101610768565b01651e17b9bb339f60d11b60c28201520360a881018452018261081e565b5f5b888110610abc575060010161097d565b95929891979390969499610ad3818b8a8a866115d9565b9260015b88838d8c848b610ae782876108be565b109485610ce5575b505050505015610b1b575f198114610b0957600101610ad7565b8c60118c634e487b7160e01b5f52525ffd5b919b9698929599939a9497909a60ff81169081610b44575b505090610b3f916108be565b610aac565b9091998a861b906010918c810483148d151715610cd357610b6490610ddd565b9286881b878104841488151715610cc157610b7e90610ddd565b9286891b878104821488151715610caf57610b9890610ddd565b951015610c9d5792610c9492604e928f8e611fe0610b3f9a999860051b1601519051968793602093610bd28151809287808a019101610768565b850195681e3932b1ba103c1e9160b91b85880152602996610bfb82518093888b85019101610768565b01956411103c9e9160d91b90870152602e95610c1f82518093878a85019101610768565b01906811103bb4b23a341e9160b91b86830152603791610c4782518093878685019101610768565b01907311103432b4b3b43a1e91189b11103334b6361e9160611b90820152610c7a604b9383519384918685019101610768565b6211179f60e91b910191820152039081018452018261081e565b9890915f610b33565b8a603289634e487b7160e01b5f52525ffd5b8c60118b634e487b7160e01b5f52525ffd5b8b60118a634e487b7160e01b5f52525ffd5b8a601189634e487b7160e01b5f52525ffd5b610cfa955090610cf4916108be565b886115d9565b60ff808716911614838d8c848d610aef565b610d2091503d805f833e610688818361081e565b5f61096a565b85513d5f823e3d90fd5b82919750610d485f913d8084833e610688818361081e565b979150610939565b5f546001600160a01b03163303610d6357565b60405163118cdaa760e01b8152336004820152602490fd5b60405190610d88826107b5565b815f5b6102008110610d98575050565b606082820152602001610d8b565b610dae610d7b565b50805160041015610dc95760246108bb91015160f81c6116cb565b634e487b7160e01b5f52603260045260245ffd5b805f917a184f03e93ff9f4daa797ed6e38ed64bf6a1f01000000000000000080821015610f36575b506d04ee2d6d415b85acef810000000080831015610f27575b50662386f26fc1000080831015610f18575b506305f5e10080831015610f09575b5061271080831015610efa575b506064821015610eea575b600a80921015610ee0575b6001908160216001860195610e7687610840565b96610e84604051988961081e565b808852610e93601f1991610840565b01366020890137860101905b610eab575b5050505090565b5f19019083906f181899199a1a9b1b9c1cb0b131b232b360811b8282061a835304918215610edb57919082610e9f565b610ea4565b9160010191610e62565b9190606460029104910191610e57565b6004919392049101915f610e4c565b6008919392049101915f610e3f565b6010919392049101915f610e30565b6020919392049101915f610e1e565b60409350810491505f610e05565b600560ff80921606168015610ff05760018114610fd05760028114610fae57600314610f8d57604051610f76816107e6565b600781526629b832b1ba32b960c91b602082015290565b604051610f99816107e6565b6005815264111c9bda5960da1b602082015290565b50604051610fbb816107e6565b600581526420b634b2b760d91b602082015290565b50604051610fdd816107e6565b600381526210d85d60ea1b602082015290565b50604051610ffd816107e6565b6005815264243ab6b0b760d91b602082015290565b600660ff809216061680156110ee57600181146110cc57600281146110a85760038114611087576004146110625760405161104c816107e6565b6006815265536c6565707960d01b602082015290565b60405161106e816107e6565b600981526814dd5c9c1c9a5cd95960ba1b602082015290565b50604051611094816107e6565b6004815263536d756760e01b602082015290565b506040516110b5816107e6565b6007815266536572696f757360c81b602082015290565b506040516110d9816107e6565b6005815264536d696c6560d81b602082015290565b506040516110fb816107e6565b600781526613995d5d1c985b60ca1b602082015290565b6040519061111f826107e6565b60048252634e6f6e6560e01b6020830152565b6040519061113f826107e6565b60058252642b34b9b7b960d91b6020830152565b60071680156112605760018114611240576002811461121e57600381146111fd57600481146111d957600581146111b5576006146111ad57604051611197816107e6565b60068152654265616e696560d01b602082015290565b6108bb611132565b506040516111c2816107e6565b6007815266151bdc0812185d60ca1b602082015290565b506040516111e6816107e6565b6007815266416e74656e6e6160c81b602082015290565b5060405161120a816107e6565b600481526348616c6f60e01b602082015290565b5060405161122b816107e6565b600581526421b937bbb760d91b602082015290565b5060405161124d816107e6565b600381526204361760ec1b602082015290565b506108bb611112565b600660ff80921606168015611260576001811461130c57600281146112e257600381146112d9576004146112b5576040516112a3816107e6565b60028152612b2960f11b602082015290565b6040516112c1816107e6565b600881526708af2cae0c2e8c6d60c31b602082015290565b506108bb611132565b506040516112ef816107e6565b600d81526c526f756e6420476c617373657360981b602082015290565b50604051611319816107e6565b600681526553686164657360d01b602082015290565b600660ff8092160616801561140557600181146113e457600281146113c3576003811461139f5760041461137e57604051611369816107e6565b600581526443616e647960d81b602082015290565b60405161138a816107e6565b60058152644d6f6e6f2b60d81b602082015290565b506040516113ac816107e6565b600781526615995c99185b9d60ca1b602082015290565b506040516113d0816107e6565b60048152634475736b60e01b602082015290565b506040516113f1816107e6565b60048152635469646560e01b602082015290565b50604051611412816107e6565b600581526422b6b132b960d91b602082015290565b67ffffffffffffffff81116107d25760051b60200190565b6001546001600160a01b03169190821561159b575f90602460405180958193633fddac4f60e21b835260048301525afa918215611590575f905f9361148357509190565b9250503d805f843e611495818461081e565b82019160408184031261010257805167ffffffffffffffff908181116101025782019084601f83011215610102578151926020926114d285611427565b946114e0604051968761081e565b808652848087019160051b83010191888311610102578501905b828210611576575050508281015191821161010257019380601f8601121561010257845161152781611427565b95611535604051978861081e565b818752838088019260051b820101928311610102578301905b82821061155d57505050509190565b815160ff8116810361010257815290830190830161154e565b815161ffff811681036101025781529085019085016114fa565b6040513d5f823e3d90fd5b5060405191506115aa82610802565b5f8252604051916115ba83610802565b5f83525f3681379190565b8051821015610dc95760209160051b010190565b90949391928360061b92848404604014851517156108cb57869361160161ffff9889926108be565b168251805b61161957505050506108bb9394506124df565b5f1981018181116108cb57828a61163083886115c5565b511614611647575080156108cb575f190180611606565b9550505091505060ff93945061165d92506115c5565b511690565b6040519061166f826107e6565b60078252662366666163346160c81b6020830152565b60405190611692826107e6565b60078252662333663962636360c81b6020830152565b604051906116b5826107e6565b6007825266119b32311b9a1960c91b6020830152565b600660ff80926116d9610d7b565b50160616801561218a5760018114611f745760028114611d495760038114611b335760041461193a576040805190611710826107b5565b662338633261346160c81b8151611726816107e6565b600792838252602091662331613066316160c81b838201528552805161174b816107e6565b848152660233265313733360cc1b8382015282860152805161176c816107e6565b848152660233461323035360cc1b8382015281860152805161178d816107e6565b84815266119b3099319b9960c91b83820152606086015280516117af816107e6565b84815266119c3199b09c9960c91b83820152608086015280516117d1816107e6565b848152662362313466616560c81b8382015260a086015280516117f3816107e6565b8481526608d90d0d9898cd60ca1b8382015260c08601528051611815816107e6565b8481526611b2b31c33321b60c91b8382015260e08601528051611837816107e6565b8481526611b333311c329b60c91b83820152610100860152805161185a816107e6565b8481526608d999994c198d60ca1b83820152610120860152805161187d816107e6565b848152662366666633636360c81b8382015261014086015280516118a0816107e6565b8481526611b333321c9b3160c91b8382015261016086015280516118c3816107e6565b8481526611b333311819b360c91b8382015261018086015280516118e6816107e6565b848152662366663761356360c81b838201526101a08601528051611909816107e6565b8481526611b29c1a321b3160c91b838201526101c0860152519261192c846107e6565b83528201526101e082015290565b6040805190611948826107b5565b660236666353437360cc1b815161195e816107e6565b600792838252602091661198309830983160c91b8382015285528051611983816107e6565b84815266046626c626c62760cb1b838201528286015280516119a4816107e6565b848152662332343234323760c81b838201528186015280516119c5816107e6565b848152660466668666866760cb1b83820152606086015280516119e7816107e6565b84815266119a1c1a1c9a3160c91b8382015260808601528051611a09816107e6565b848152662335663630363360c81b8382015260a08601528051611a2b816107e6565b8481526608cdce0dd84dd960ca1b8382015260c08601528051611a4d816107e6565b848152662339343936396160c81b8382015260e08601528051611a6f816107e6565b848152662362316233623760c81b838201526101008601528051611a92816107e6565b8481526608d8d9990c590d60ca1b838201526101208601528051611ab5816107e6565b8481526608d94cd94d594d60ca1b838201526101408601528051611ad8816107e6565b8481526611b3193319b31960c91b838201526101608601525192611afb846107e6565b8352820152610180820152611b0e611685565b6101a0820152611b1c611662565b6101c0820152611b2a6116a8565b6101e082015290565b506040805190611b42826107b5565b662333613231306160c81b8151611b58816107e6565b6007928382526020916604660c2626260760cb1b8382015285528051611b7d816107e6565b848152660233134323031360cc1b83820152828601528051611b9e816107e6565b8481526604662cc666662760cb1b83820152818601528051611bbf816107e6565b848152660233263346132360cc1b8382015260608601528051611be1816107e6565b848152661199b21b1b193160c91b8382015260808601528051611c03816107e6565b84815266119a989c98999b60c91b8382015260a0860152611c226116a8565b60c08601528051611c32816107e6565b848152662338666439356160c81b8382015260e08601528051611c54816107e6565b848152662362666630376560c81b838201526101008601528051611c77816107e6565b848152660236534666662360cc1b838201526101208601528051611c9a816107e6565b84815266046cccccc60c2760cb1b838201526101408601528051611cbd816107e6565b848152662366356334356560c81b838201526101608601528051611ce0816107e6565b8481526611b21c9c9a199960c91b838201526101808601528051611d03816107e6565b848152662361383635316360c81b838201526101a08601528051611d26816107e6565b84815266119b3299b2989960c91b838201526101c0860152519261192c846107e6565b506040805190611d58826107b5565b660233361313533360cc1b8151611d6e816107e6565b600792838252602091662330663061316160c81b8382015285528051611d93816107e6565b848152660233163313333360cc1b83820152828601528051611db4816107e6565b848152662332633163346160c81b83820152818601528051611dd5816107e6565b848152661199b299309b1b60c91b8382015260608601528051611df7816107e6565b8481526608cd4c8cd84e0d60ca1b8382015260808601528051611e19816107e6565b84815266119b309a31b09b60c91b8382015260a08601528051611e3b816107e6565b8481526608ce0d0d8cd8cd60ca1b8382015260c08601528051611e5d816107e6565b8481526611b0989c18b23360c91b8382015260e08601528051611e7f816107e6565b848152660236330613366360cc1b838201526101008601528051611ea2816107e6565b8481526611b232319c333160c91b838201526101208601528051611ec5816107e6565b848152662366366436656360c81b838201526101408601528051611ee8816107e6565b848152662365383962633960c81b838201526101608601528051611f0b816107e6565b8481526611b21a1b181cb360c91b838201526101808601528051611f2e816107e6565b848152662361383434376160c81b838201526101a08601528051611f51816107e6565b84815266119b3319309a9960c91b838201526101c0860152519261192c846107e6565b506040805190611f83826107b5565b662330363366333360c81b8151611f99816107e6565b600792838252602091662330383131316360c81b8382015285528051611fbe816107e6565b848152662330643166333360c81b83820152828601528051611fdf816107e6565b8481526608cc4ccccc4d1960ca1b83820152818601528051612000816107e6565b848152661198b09a1a9b3160c91b8382015260608601528051612022816107e6565b848152662332323564386360c81b8382015260808601528051612044816107e6565b8481526608cc990dd8585960ca1b8382015260a0860152612063611685565b60c08601528051612073816107e6565b848152660233563626365360cc1b8382015260e08601528051612095816107e6565b848152662338366436656560c81b8382015261010086015280516120b8816107e6565b848152662362386565666160c81b8382015261012086015280516120db816107e6565b84815266046c868cc6cca760cb1b8382015261014086015280516120fe816107e6565b8481526608ce19994d98cd60ca1b838201526101608601528051612121816107e6565b848152662334666366396360c81b838201526101808601528051612144816107e6565b848152662331643965373560c81b838201526101a08601528051612167816107e6565b848152661198331b329a9b60c91b838201526101c0860152519261192c846107e6565b506040805190612199826107b5565b66119ab198b2183360c91b81516121af816107e6565b6007928382526020916608cc584c4c0c4d60ca1b83820152855280516121d4816107e6565b848152662332643136316360c81b838201528286015280516121f5816107e6565b8481526608cd0d4c590c8d60ca1b83820152818601528051612216816107e6565b848152660233565323733360cc1b8382015260608601528051612238816107e6565b848152660233761333334360cc1b838201526080860152805161225a816107e6565b848152660233963343035360cc1b8382015260a0860152805161227c816107e6565b8481526611b1991a981b1960c91b8382015260c0860152805161229e816107e6565b84815266046ca606c686e760cb1b8382015260e086015280516122c0816107e6565b848152662366323837396160c81b8382015261010086015280516122e3816107e6565b8481526608d999988c189960ca1b838201526101208601528051612306816107e6565b8481526611b33332191c3360c91b83820152610140860152612326611662565b6101608601528051612337816107e6565b848152662366663762326560c81b83820152610180860152805161235a816107e6565b8481526608d94e0d4d0c5960ca1b838201526101a0860152805161237d816107e6565b848152662361383335313560c81b838201526101c0860152519261192c846107e6565b8051156124cc5780519160028084018094116108cb57600393849004600281901b91906001600160fe1b038116036108cb5793604051937f4142434445464748494a4b4c4d4e4f505152535455565758595a616263646566601f52603f917f6768696a6b6c6d6e6f707172737475767778797a303132333435363738392b2f603f5260208601928291835184019160208301998a51945f8c525b8481106124905750505050509060039160209596975251068060011461247b5760021461246e575b50808452830101604052565b603d905f1901535f612462565b50603d90815f1982015360011901535f612462565b836004919c95989c019b838d51818160121c165183538181600c1c16516001840153818160061c1651858401531651858201530196939a61243a565b506040516124d981610802565b5f815290565b91908160061b91808304604014901517156108cb576124fd916108be565b908160011c908051821015610dc957016020015190600116156125235760f81c600f1690565b60fc1c9056fea2646970667358221220382d56421303957fe1d1a255a058d68ba2201111f819192d04ab9d84e939080764736f6c63430008180033","linkReferences":{}},"methodIdentifiers":{"chromaCanvas()":"cc5f2f10","chromaStorage()":"e6b5e237","owner()":"8da5cb5b","renderSVG(uint256)":"d12a4c98","renounceOwnership()":"715018a6","setCanvas(address)":"a064f109","tokenURI(uint256)":"c87b56dd","transferOwnership(address)":"f2fde38b"},"id":2}