{"abi":[{"type":"constructor","inputs":[{"name":"chromaAddress","type":"address","internalType":"address"},{"name":"initialOwner","type":"address","internalType":"address"}],"stateMutability":"nonpayable"},{"type":"function","name":"ACTION_POINTS_PER_BURN","inputs":[],"outputs":[{"name":"","type":"uint256","internalType":"uint256"}],"stateMutability":"view"},{"type":"function","name":"DEAD_ADDRESS","inputs":[],"outputs":[{"name":"","type":"address","internalType":"address"}],"stateMutability":"view"},{"type":"function","name":"actionPoints","inputs":[{"name":"user","type":"address","internalType":"address"}],"outputs":[{"name":"points","type":"uint256","internalType":"uint256"}],"stateMutability":"view"},{"type":"function","name":"applyDiff","inputs":[{"name":"tokenId","type":"uint256","internalType":"uint256"},{"name":"diffData","type":"bytes","internalType":"bytes"}],"outputs":[],"stateMutability":"nonpayable"},{"type":"function","name":"chroma","inputs":[],"outputs":[{"name":"","type":"address","internalType":"contract IChromaToken"}],"stateMutability":"view"},{"type":"function","name":"getCanvasInfo","inputs":[{"name":"user","type":"address","internalType":"address"},{"name":"tokenId","type":"uint256","internalType":"uint256"}],"outputs":[{"name":"points","type":"uint256","internalType":"uint256"},{"name":"diffCount","type":"uint256","internalType":"uint256"},{"name":"customized","type":"bool","internalType":"bool"},{"name":"hasPendingCommit","type":"bool","internalType":"bool"}],"stateMutability":"view"},{"type":"function","name":"getDiff","inputs":[{"name":"tokenId","type":"uint256","internalType":"uint256"}],"outputs":[{"name":"pixelIndexes","type":"uint16[]","internalType":"uint16[]"},{"name":"newColorIndexes","type":"uint8[]","internalType":"uint8[]"}],"stateMutability":"view"},{"type":"function","name":"owner","inputs":[],"outputs":[{"name":"","type":"address","internalType":"address"}],"stateMutability":"view"},{"type":"function","name":"pendingCommit","inputs":[{"name":"user","type":"address","internalType":"address"}],"outputs":[{"name":"commitment","type":"bytes32","internalType":"bytes32"},{"name":"exists","type":"bool","internalType":"bool"}],"stateMutability":"view"},{"type":"function","name":"renounceOwnership","inputs":[],"outputs":[],"stateMutability":"nonpayable"},{"type":"function","name":"revealBurnAndApplyDiff","inputs":[{"name":"tokenId","type":"uint256","internalType":"uint256"},{"name":"burnedTokenId","type":"uint256","internalType":"uint256"},{"name":"salt","type":"bytes32","internalType":"bytes32"},{"name":"diffData","type":"bytes","internalType":"bytes"}],"outputs":[],"stateMutability":"nonpayable"},{"type":"function","name":"submitCommit","inputs":[{"name":"commitment","type":"bytes32","internalType":"bytes32"}],"outputs":[],"stateMutability":"nonpayable"},{"type":"function","name":"transferOwnership","inputs":[{"name":"newOwner","type":"address","internalType":"address"}],"outputs":[],"stateMutability":"nonpayable"},{"type":"event","name":"BurnRevealed","inputs":[{"name":"user","type":"address","indexed":true,"internalType":"address"},{"name":"burnedTokenId","type":"uint256","indexed":true,"internalType":"uint256"},{"name":"actionPointsAwarded","type":"uint256","indexed":false,"internalType":"uint256"}],"anonymous":false},{"type":"event","name":"CommitSubmitted","inputs":[{"name":"user","type":"address","indexed":true,"internalType":"address"},{"name":"commitment","type":"bytes32","indexed":true,"internalType":"bytes32"}],"anonymous":false},{"type":"event","name":"DiffApplied","inputs":[{"name":"user","type":"address","indexed":true,"internalType":"address"},{"name":"tokenId","type":"uint256","indexed":true,"internalType":"uint256"},{"name":"entriesApplied","type":"uint256","indexed":false,"internalType":"uint256"}],"anonymous":false},{"type":"event","name":"OwnershipTransferred","inputs":[{"name":"previousOwner","type":"address","indexed":true,"internalType":"address"},{"name":"newOwner","type":"address","indexed":true,"internalType":"address"}],"anonymous":false},{"type":"error","name":"InsufficientActionPoints","inputs":[]},{"type":"error","name":"InvalidDiffEncoding","inputs":[]},{"type":"error","name":"InvalidReveal","inputs":[]},{"type":"error","name":"MissingCommit","inputs":[]},{"type":"error","name":"NotTokenOwner","inputs":[]},{"type":"error","name":"OwnableInvalidOwner","inputs":[{"name":"owner","type":"address","internalType":"address"}]},{"type":"error","name":"OwnableUnauthorizedAccount","inputs":[{"name":"account","type":"address","internalType":"address"}]},{"type":"error","name":"PixelIndexOutOfRange","inputs":[]}],"bytecode":{"object":"0x60a0346100dd57601f610c0a38819003918201601f19168301916001600160401b038311848410176100e15780849260409485528339810103126100dd576020610048826100f5565b916001600160a01b0391829161005e91016100f5565b169182156100c5575f80546001600160a01b03198116851782556040519491908416907f8be0079c531659141344cd1fd0a4f28419497f9722a3daafe3b4186f6b6457e09080a316608052610b00908161010a82396080518181816102ae01526105fd0152f35b604051631e4fbdf760e01b81525f6004820152602490fd5b5f80fd5b634e487b7160e01b5f52604160045260245ffd5b51906001600160a01b03821682036100dd5756fe6080604081815260049182361015610015575f80fd5b5f905f3560e01c908163076a4f951461078c575080634846b88d146105025780634e6fd6c4146104e5578063629958981461047157806363ccef9314610430578063715018a6146103d75780638975bd851461036857806389f1e3f2146103215780638da5cb5b146102f95780639a4a9877146102dd578063d1425c6114610299578063f2fde38b146102075763ff76b13c146100b0575f80fd5b34610204576020928360031936011261020057929192358152600382528281209081546100dc81610856565b936100e986519586610834565b8185526100f582610856565b9381860192601f1980960136853761010c81610856565b9161011989519384610834565b81835261012582610856565b8385019701368837855b8281106101af57505050865196879681880191885251809152606087019390855b81811061019457505050858303868301525180835291810193925b82811061017a57505050500390f35b835160ff168552869550938101939281019260010161016b565b825161ffff1686528998509484019491840191600101610150565b8061ffff6101c7600193859d97989a999b9c9d61086e565b5054166101d4828d610897565b5260ff6101e1828561086e565b505460101c166101f18288610897565b5201989796949593929861012f565b5080fd5b80fd5b509134610295576020366003190112610295576102226107c0565b9061022b610a9f565b6001600160a01b0391821692831561027f5750505f54826bffffffffffffffffffffffff60a01b8216175f55167f8be0079c531659141344cd1fd0a4f28419497f9722a3daafe3b4186f6b6457e05f80a380f35b51631e4fbdf760e01b8152908101849052602490fd5b8280fd5b509034610200578160031936011261020057517f00000000000000000000000000000000000000000000000000000000000000006001600160a01b03168152602090f35b5090346102005781600319360112610200576020905160108152f35b509034610200578160031936011261020057905490516001600160a01b039091168152602090f35b509034610200576020366003190112610200579081906001600160a01b036103476107c0565b16815260026020522060ff6001825492015416825191825215156020820152f35b509034610200578060031936011261020057608091906001600160a01b0361038e6107c0565b1690818352600160205260ff6001828086205495602435815260036020528181205495815260026020522001541691815193845280602085015215159083015215156060820152f35b50346102045780600319360112610204576103f0610a9f565b5f80546001600160a01b0319811682556001600160a01b03167f8be0079c531659141344cd1fd0a4f28419497f9722a3daafe3b4186f6b6457e08280a380f35b5091903461029557366003190112610200576024359067ffffffffffffffff82116102955761046561046e92369083016107d6565b903392356108b7565b80f35b5091346102955760203660031901126102955735906001815161049381610804565b83815260208101928284523386526002602052852090518155019051151560ff80198354169116179055337f5a535d3e2551e12d386f4ddc23831403dcc44673683c17620c115a9f759083228380a380f35b5090346102005781600319360112610200576020905161dead8152f35b5090346107165760803660031901126107165782359067ffffffffffffffff906024356064358381116107165761053c90369088016107d6565b939092335f5260209160028352815f2060ff600184519261055c84610804565b805484520154161580158583015261077c57825184810190338252898582015286606082015260a060808201528860c0820152888860e08301375f60e08a8301015260443560a08201526105c460e082601f19601f8d011681010360c0810184520182610834565b51902090510361076c57335f908152600284528281208181556001015581516331a9108f60e11b81528981018590526001600160a01b037f000000000000000000000000000000000000000000000000000000000000000081169291908582602481875afa918215610762575f9261072a575b503391160361071a57813b15610716575f809260648c865195869384926323b872dd60e01b8452339084015261dead60248401528a60448401525af1801561070c576106e4575b505033875260018252808720805490601082018092116106d15755516010815295965061046e9533917fd71510e9fc803b279fe2b15fc2448d2f8d615e3257f6a9ca5b76d505d0bd2bfd91a333926108b7565b634e487b7160e01b895260118a52602489fd5b9080929850116106f95786525f955f8061067e565b604188634e487b7160e01b5f525260245ffd5b83513d5f823e3d90fd5b5f80fd5b82516359dc379f60e01b81528a90fd5b9091508581813d831161075b575b6107428183610834565b810103126107165751818116810361071657905f610637565b503d610738565b85513d5f823e3d90fd5b8151639ea6d12760e01b81528990fd5b82516328c17fd360e11b81528a90fd5b839034610716576020366003190112610716576020916001600160a01b036107b26107c0565b165f52600183525f20548152f35b600435906001600160a01b038216820361071657565b9181601f840112156107165782359167ffffffffffffffff8311610716576020838186019501011161071657565b6040810190811067ffffffffffffffff82111761082057604052565b634e487b7160e01b5f52604160045260245ffd5b90601f8019910116810190811067ffffffffffffffff82111761082057604052565b67ffffffffffffffff81116108205760051b60200190565b8054821015610883575f5260205f2001905f90565b634e487b7160e01b5f52603260045260245ffd5b80518210156108835760209160051b010190565b90821015610883570190565b9291909181158015610a93575b610a8157600391600381049160018060a01b031693845f526001916020600160205260409585875f205410610a70575f5b86811061095c57505050505050825f526001602052815f2090815492818403938411610948577fcb50b02cbcaa528643a7b6d33e8c74bf97c22132d92537ff0e6fba3fc0d0f202936020935551908152a3565b634e487b7160e01b5f52601160045260245ffd5b818102908082048314811517156109485761ff0061097b8387896108ab565b3560f01c16878301808411610948576109959087896108ab565b3560f89360028101809111610948576109af90888a6108ab565b35841c931c1791611000831015610a5f57600f8111610a4e578b5f52838552895f208a51936109dd85610804565b845285840191825280546801000000000000000081101561082057610a06918a8201815561086e565b919091610a3b5761ffff8994511662ff00008354928261ffff1985161785555160101b169162ffffff191617179055016108f5565b634e487b7160e01b5f525f60045260245ffd5b895163d01c3c7d60e01b8152600490fd5b8951631609b4e960e31b8152600490fd5b86516319313ec760e01b8152600490fd5b60405163d01c3c7d60e01b8152600490fd5b506003820615156108c4565b5f546001600160a01b03163303610ab257565b60405163118cdaa760e01b8152336004820152602490fdfea2646970667358221220b0b4aae6bb0a4bc112aa7c923c3e465b0bd469db3575d9fd13f746015b03faad64736f6c63430008180033","linkReferences":{}},"methodIdentifiers":{"ACTION_POINTS_PER_BURN()":"9a4a9877","DEAD_ADDRESS()":"4e6fd6c4","actionPoints(address)":"076a4f95","applyDiff(uint256,bytes)":"63ccef93","chroma()":"d1425c61","getCanvasInfo(address,uint256)":"8975bd85","getDiff(uint256)":"ff76b13c","owner()":"8da5cb5b","pendingCommit(address)":"89f1e3f2","renounceOwnership()":"715018a6","revealBurnAndApplyDiff(uint256,uint256,bytes32,bytes)":"4846b88d","submitCommit(bytes32)":"62995898","transferOwnership(address)":"f2fde38b"},"id":1}