{"abi":[{"type":"constructor","inputs":[{"name":"initialOwner","type":"address","internalType":"address"},{"name":"initialWriter","type":"address","internalType":"address"}],"stateMutability":"nonpayable"},{"type":"function","name":"getPixels","inputs":[{"name":"tokenId","type":"uint256","internalType":"uint256"}],"outputs":[{"name":"","type":"bytes","internalType":"bytes"}],"stateMutability":"view"},{"type":"function","name":"getTraits","inputs":[{"name":"tokenId","type":"uint256","internalType":"uint256"}],"outputs":[{"name":"","type":"bytes","internalType":"bytes"}],"stateMutability":"view"},{"type":"function","name":"owner","inputs":[],"outputs":[{"name":"","type":"address","internalType":"address"}],"stateMutability":"view"},{"type":"function","name":"pixelPointers","inputs":[{"name":"tokenId","type":"uint256","internalType":"uint256"}],"outputs":[{"name":"","type":"address","internalType":"address"}],"stateMutability":"view"},{"type":"function","name":"renounceOwnership","inputs":[],"outputs":[],"stateMutability":"nonpayable"},{"type":"function","name":"setWriter","inputs":[{"name":"newWriter","type":"address","internalType":"address"}],"outputs":[],"stateMutability":"nonpayable"},{"type":"function","name":"traitPointers","inputs":[{"name":"tokenId","type":"uint256","internalType":"uint256"}],"outputs":[{"name":"","type":"address","internalType":"address"}],"stateMutability":"view"},{"type":"function","name":"transferOwnership","inputs":[{"name":"newOwner","type":"address","internalType":"address"}],"outputs":[],"stateMutability":"nonpayable"},{"type":"function","name":"writeTokenData","inputs":[{"name":"tokenId","type":"uint256","internalType":"uint256"},{"name":"pixels","type":"bytes","internalType":"bytes"},{"name":"traits","type":"bytes","internalType":"bytes"}],"outputs":[],"stateMutability":"nonpayable"},{"type":"function","name":"writer","inputs":[],"outputs":[{"name":"","type":"address","internalType":"address"}],"stateMutability":"view"},{"type":"event","name":"OwnershipTransferred","inputs":[{"name":"previousOwner","type":"address","indexed":true,"internalType":"address"},{"name":"newOwner","type":"address","indexed":true,"internalType":"address"}],"anonymous":false},{"type":"error","name":"InvalidPixelsLength","inputs":[]},{"type":"error","name":"InvalidTraitsLength","inputs":[]},{"type":"error","name":"OwnableInvalidOwner","inputs":[{"name":"owner","type":"address","internalType":"address"}]},{"type":"error","name":"OwnableUnauthorizedAccount","inputs":[{"name":"account","type":"address","internalType":"address"}]},{"type":"error","name":"TokenAlreadyWritten","inputs":[]},{"type":"error","name":"TokenNotWritten","inputs":[]},{"type":"error","name":"UnauthorizedWriter","inputs":[]}],"bytecode":{"object":"0x6080346100d057601f6106b738819003918201601f19168301916001600160401b038311848410176100d45780849260409485528339810103126100d057610052602061004b836100e8565b92016100e8565b906001600160a01b039081169081156100b8575f549260018060a01b03199280848616175f558260405195167f8be0079c531659141344cd1fd0a4f28419497f9722a3daafe3b4186f6b6457e05f80a3169060015416176001556105ba90816100fd8239f35b604051631e4fbdf760e01b81525f6004820152602490fd5b5f80fd5b634e487b7160e01b5f52604160045260245ffd5b51906001600160a01b03821682036100d05756fe6080604081815260049182361015610015575f80fd5b5f3560e01c9081630a058fcf146102fb5750806339e20523146102b7578063453a2abc1461028f578063715018a6146102385780638da5cb5b14610211578063c312ccad146101e2578063d531c7c7146101b3578063e1dc076114610175578063f2fde38b146100eb5763feb923e11461008d575f80fd5b346100e75760203660031901126100e75781355f9081526002602052819020546001600160a01b03169182156100d957506100ca6100d59261055a565b905191829182610444565b0390f35b90516350b22b4960e01b8152fd5b5f80fd5b50346100e75760203660031901126100e7576001600160a01b038235818116939192908490036100e75761011d61052f565b831561015f5750505f54826001600160601b0360a01b8216175f55167f8be0079c531659141344cd1fd0a4f28419497f9722a3daafe3b4186f6b6457e05f80a3005b905f6024925191631e4fbdf760e01b8352820152fd5b50346100e75760203660031901126100e75781355f9081526003602052819020546001600160a01b03169182156100d957506100ca6100d59261055a565b50346100e75760203660031901126100e757602091355f526003825260018060a01b03815f2054169051908152f35b50346100e75760203660031901126100e757602091355f526002825260018060a01b03815f2054169051908152f35b50346100e7575f3660031901126100e7575f5490516001600160a01b039091168152602090f35b346100e7575f3660031901126100e75761025061052f565b5f80546001600160a01b0319811682556001600160a01b03167f8be0079c531659141344cd1fd0a4f28419497f9722a3daafe3b4186f6b6457e08280a3005b50346100e7575f3660031901126100e75760015490516001600160a01b039091168152602090f35b82346100e75760203660031901126100e757356001600160a01b038116908190036100e7576102e461052f565b6001600160601b0360a01b60015416176001555f80f35b839150346100e75760603660031901126100e75781359267ffffffffffffffff926024358481116100e7576103339036908301610416565b946044359081116100e75761034b9036908401610416565b95909260018060a01b03958660015416330361040a575061080082036103fc57600587036103ee57875f52600260205285855f2054166103e05750916103a161039c61039c936103c995369161048b565b6104f1565b95875f526002602052845f20866001600160601b0360a01b981688825416179055369161048b565b935f5260036020525f209216908254161790555f80f35b8451632c90141b60e01b8152fd5b845163ea086c5b60e01b8152fd5b84516323611fc160e21b8152fd5b63b426abc160e01b8152fd5b9181601f840112156100e75782359167ffffffffffffffff83116100e757602083818601950101116100e757565b602080825282518183018190529093925f5b82811061047757505060409293505f838284010152601f8019910116010190565b818101860151848201604001528501610456565b92919267ffffffffffffffff918281116104dd5760405192601f8201601f19908116603f01168401908111848210176104dd576040528294818452818301116100e7578281602093845f960137010152565b634e487b7160e01b5f52604160045260245ffd5b9081518060401b6bfe61000180600a3d393df3000161fffe8211840152600b8101601584015ff09283156105225752565b63301164255f526004601cfd5b5f546001600160a01b0316330361054257565b60405163118cdaa760e01b8152336004820152602490fd5b906040805180935f19813b0164ffffffffff16905f6021830191601f8501903c808252010160405256fea264697066735822122066df32b7bef90800d2707d36663e9b55f32fa7e75bbf520f2e6d0d00985a3b6b64736f6c63430008180033","linkReferences":{}},"methodIdentifiers":{"getPixels(uint256)":"feb923e1","getTraits(uint256)":"e1dc0761","owner()":"8da5cb5b","pixelPointers(uint256)":"c312ccad","renounceOwnership()":"715018a6","setWriter(address)":"39e20523","traitPointers(uint256)":"d531c7c7","transferOwnership(address)":"f2fde38b","writeTokenData(uint256,bytes,bytes)":"0a058fcf","writer()":"453a2abc"},"id":3}