{"abi":[{"type":"constructor","inputs":[{"name":"storageAddress","type":"address","internalType":"address"},{"name":"initialOwner","type":"address","internalType":"address"},{"name":"royaltyReceiver","type":"address","internalType":"address"},{"name":"royaltyFeeNumerator","type":"uint96","internalType":"uint96"}],"stateMutability":"nonpayable"},{"type":"function","name":"approve","inputs":[{"name":"to","type":"address","internalType":"address"},{"name":"tokenId","type":"uint256","internalType":"uint256"}],"outputs":[],"stateMutability":"nonpayable"},{"type":"function","name":"balanceOf","inputs":[{"name":"owner","type":"address","internalType":"address"}],"outputs":[{"name":"","type":"uint256","internalType":"uint256"}],"stateMutability":"view"},{"type":"function","name":"chromaStorage","inputs":[],"outputs":[{"name":"","type":"address","internalType":"contract ChromaStorage"}],"stateMutability":"view"},{"type":"function","name":"getApproved","inputs":[{"name":"tokenId","type":"uint256","internalType":"uint256"}],"outputs":[{"name":"","type":"address","internalType":"address"}],"stateMutability":"view"},{"type":"function","name":"isApprovedForAll","inputs":[{"name":"owner","type":"address","internalType":"address"},{"name":"operator","type":"address","internalType":"address"}],"outputs":[{"name":"","type":"bool","internalType":"bool"}],"stateMutability":"view"},{"type":"function","name":"mint","inputs":[{"name":"to","type":"address","internalType":"address"},{"name":"tokenId","type":"uint256","internalType":"uint256"},{"name":"pixels","type":"bytes","internalType":"bytes"},{"name":"traits","type":"bytes","internalType":"bytes"}],"outputs":[],"stateMutability":"nonpayable"},{"type":"function","name":"name","inputs":[],"outputs":[{"name":"","type":"string","internalType":"string"}],"stateMutability":"view"},{"type":"function","name":"owner","inputs":[],"outputs":[{"name":"","type":"address","internalType":"address"}],"stateMutability":"view"},{"type":"function","name":"ownerOf","inputs":[{"name":"tokenId","type":"uint256","internalType":"uint256"}],"outputs":[{"name":"","type":"address","internalType":"address"}],"stateMutability":"view"},{"type":"function","name":"renderer","inputs":[],"outputs":[{"name":"","type":"address","internalType":"contract IChromaRenderer"}],"stateMutability":"view"},{"type":"function","name":"renounceOwnership","inputs":[],"outputs":[],"stateMutability":"nonpayable"},{"type":"function","name":"royaltyInfo","inputs":[{"name":"tokenId","type":"uint256","internalType":"uint256"},{"name":"salePrice","type":"uint256","internalType":"uint256"}],"outputs":[{"name":"receiver","type":"address","internalType":"address"},{"name":"amount","type":"uint256","internalType":"uint256"}],"stateMutability":"view"},{"type":"function","name":"safeTransferFrom","inputs":[{"name":"from","type":"address","internalType":"address"},{"name":"to","type":"address","internalType":"address"},{"name":"tokenId","type":"uint256","internalType":"uint256"}],"outputs":[],"stateMutability":"nonpayable"},{"type":"function","name":"safeTransferFrom","inputs":[{"name":"from","type":"address","internalType":"address"},{"name":"to","type":"address","internalType":"address"},{"name":"tokenId","type":"uint256","internalType":"uint256"},{"name":"data","type":"bytes","internalType":"bytes"}],"outputs":[],"stateMutability":"nonpayable"},{"type":"function","name":"setApprovalForAll","inputs":[{"name":"operator","type":"address","internalType":"address"},{"name":"approved","type":"bool","internalType":"bool"}],"outputs":[],"stateMutability":"nonpayable"},{"type":"function","name":"setDefaultRoyalty","inputs":[{"name":"receiver","type":"address","internalType":"address"},{"name":"feeNumerator","type":"uint96","internalType":"uint96"}],"outputs":[],"stateMutability":"nonpayable"},{"type":"function","name":"setRenderer","inputs":[{"name":"rendererAddress","type":"address","internalType":"address"}],"outputs":[],"stateMutability":"nonpayable"},{"type":"function","name":"supportsInterface","inputs":[{"name":"interfaceId","type":"bytes4","internalType":"bytes4"}],"outputs":[{"name":"","type":"bool","internalType":"bool"}],"stateMutability":"view"},{"type":"function","name":"symbol","inputs":[],"outputs":[{"name":"","type":"string","internalType":"string"}],"stateMutability":"view"},{"type":"function","name":"tokenURI","inputs":[{"name":"tokenId","type":"uint256","internalType":"uint256"}],"outputs":[{"name":"","type":"string","internalType":"string"}],"stateMutability":"view"},{"type":"function","name":"transferFrom","inputs":[{"name":"from","type":"address","internalType":"address"},{"name":"to","type":"address","internalType":"address"},{"name":"tokenId","type":"uint256","internalType":"uint256"}],"outputs":[],"stateMutability":"nonpayable"},{"type":"function","name":"transferOwnership","inputs":[{"name":"newOwner","type":"address","internalType":"address"}],"outputs":[],"stateMutability":"nonpayable"},{"type":"event","name":"Approval","inputs":[{"name":"owner","type":"address","indexed":true,"internalType":"address"},{"name":"approved","type":"address","indexed":true,"internalType":"address"},{"name":"tokenId","type":"uint256","indexed":true,"internalType":"uint256"}],"anonymous":false},{"type":"event","name":"ApprovalForAll","inputs":[{"name":"owner","type":"address","indexed":true,"internalType":"address"},{"name":"operator","type":"address","indexed":true,"internalType":"address"},{"name":"approved","type":"bool","indexed":false,"internalType":"bool"}],"anonymous":false},{"type":"event","name":"OwnershipTransferred","inputs":[{"name":"previousOwner","type":"address","indexed":true,"internalType":"address"},{"name":"newOwner","type":"address","indexed":true,"internalType":"address"}],"anonymous":false},{"type":"event","name":"Transfer","inputs":[{"name":"from","type":"address","indexed":true,"internalType":"address"},{"name":"to","type":"address","indexed":true,"internalType":"address"},{"name":"tokenId","type":"uint256","indexed":true,"internalType":"uint256"}],"anonymous":false},{"type":"error","name":"ERC2981InvalidDefaultRoyalty","inputs":[{"name":"numerator","type":"uint256","internalType":"uint256"},{"name":"denominator","type":"uint256","internalType":"uint256"}]},{"type":"error","name":"ERC2981InvalidDefaultRoyaltyReceiver","inputs":[{"name":"receiver","type":"address","internalType":"address"}]},{"type":"error","name":"ERC2981InvalidTokenRoyalty","inputs":[{"name":"tokenId","type":"uint256","internalType":"uint256"},{"name":"numerator","type":"uint256","internalType":"uint256"},{"name":"denominator","type":"uint256","internalType":"uint256"}]},{"type":"error","name":"ERC2981InvalidTokenRoyaltyReceiver","inputs":[{"name":"tokenId","type":"uint256","internalType":"uint256"},{"name":"receiver","type":"address","internalType":"address"}]},{"type":"error","name":"ERC721IncorrectOwner","inputs":[{"name":"sender","type":"address","internalType":"address"},{"name":"tokenId","type":"uint256","internalType":"uint256"},{"name":"owner","type":"address","internalType":"address"}]},{"type":"error","name":"ERC721InsufficientApproval","inputs":[{"name":"operator","type":"address","internalType":"address"},{"name":"tokenId","type":"uint256","internalType":"uint256"}]},{"type":"error","name":"ERC721InvalidApprover","inputs":[{"name":"approver","type":"address","internalType":"address"}]},{"type":"error","name":"ERC721InvalidOperator","inputs":[{"name":"operator","type":"address","internalType":"address"}]},{"type":"error","name":"ERC721InvalidOwner","inputs":[{"name":"owner","type":"address","internalType":"address"}]},{"type":"error","name":"ERC721InvalidReceiver","inputs":[{"name":"receiver","type":"address","internalType":"address"}]},{"type":"error","name":"ERC721InvalidSender","inputs":[{"name":"sender","type":"address","internalType":"address"}]},{"type":"error","name":"ERC721NonexistentToken","inputs":[{"name":"tokenId","type":"uint256","internalType":"uint256"}]},{"type":"error","name":"OwnableInvalidOwner","inputs":[{"name":"owner","type":"address","internalType":"address"}]},{"type":"error","name":"OwnableUnauthorizedAccount","inputs":[{"name":"account","type":"address","internalType":"address"}]},{"type":"error","name":"RendererNotSet","inputs":[]}],"bytecode":{"object":"0x60a0346200042c576200179b80380391601f19601f818186011683019460018060401b03948487108688111762000221578160809286926040998a528339810103126200042c57620000518362000450565b926020906200006282820162000450565b9060606200007289830162000450565b910151946001600160601b038616948587036200042c576200009362000430565b9160068352654368726f6d6160d01b86840152620000b062000430565b9160068352654348524f4d4160d01b8784015283518b811162000221575f546001958682811c9216801562000421575b8a83101462000343578184849311620003ce575b5089908483116001146200036e575f9262000362575b50505f19600383901b1c191690851b175f555b8251928b841162000221578454928584811c9416801562000357575b8985101462000343578383869511620002ec575b50889284116001146200028b57505f926200027f575b50505f19600383901b1c191690821b1790555b6001600160a01b039182169586156200026857826008549160018060a01b031998808a851617600855828c5194167f8be0079c531659141344cd1fd0a4f28419497f9722a3daafe3b4186f6b6457e05f80a3166080526127108086116200024c5750501694851562000235578651908188019081118282101762000221578752858152015260a01b1617600655516113359081620004668239608051818181610206015261033a0152f35b634e487b7160e01b5f52604160045260245ffd5b8651635b6cc80560e11b81525f6004820152602490fd5b636f483d0960e01b825260048201869052602482015260449150fd5b8851631e4fbdf760e01b81525f6004820152602490fd5b015190505f8062000163565b85949291921691845f52885f20925f5b8a828210620002d55750508411620002bc575b505050811b01905562000176565b01515f1960f88460031b161c191690555f8080620002ae565b83850151865588979095019493840193016200029b565b9091929350855f52885f208480870160051c8201928b881062000339575b9187968992969594930160051c01915b8281106200032a5750506200014d565b5f81558796508891016200031a565b925081926200030a565b634e487b7160e01b5f52602260045260245ffd5b93607f169362000139565b015190505f806200010a565b9085889416915f80528b5f20925f5b8d828210620003b757505084116200039e575b505050811b015f556200011d565b01515f1960f88460031b161c191690555f808062000390565b8385015186558b979095019493840193016200037d565b9091505f8052895f208480850160051c8201928c861062000417575b918991869594930160051c01915b82811062000408575050620000f4565b5f8155859450899101620003f8565b92508192620003ea565b91607f1691620000e0565b5f80fd5b60408051919082016001600160401b038111838210176200022157604052565b51906001600160a01b03821682036200042c5756fe60806040818152600480361015610014575f80fd5b5f925f3560e01c90816301ffc9a714610dcf5750806304634d8d14610d0b57806306fdde0314610c44578063081812fc14610c0b578063095ea7b314610b2f57806323b872dd14610b185780632a55205a14610a7757806342842e0e14610a4957806356d3163d14610a065780636352211e146109d657806370a0823114610981578063715018a6146109265780638ada6b0f146108fe5780638da5cb5b146108d657806395d89b41146107c6578063a22cb4651461070e578063b88d4fde1461067b578063c87b56dd14610571578063dcdc7dd014610235578063e6b5e237146101f1578063e985e9c51461019f5763f2fde38b14610112575f80fd5b3461019b57602036600319011261019b5761012b610e53565b9061013461114f565b6001600160a01b03918216928315610185575050600854826001600160601b0360a01b821617600855167f8be0079c531659141344cd1fd0a4f28419497f9722a3daafe3b4186f6b6457e05f80a380f35b51631e4fbdf760e01b8152908101849052602490fd5b8280fd5b5050346101ed57806003193601126101ed576020916101bc610e53565b826101c5610e69565b9260018060a01b038093168152600586522091165f52825260ff815f20541690519015158152f35b5080fd5b5050346101ed57816003193601126101ed57517f00000000000000000000000000000000000000000000000000000000000000006001600160a01b03168152602090f35b5090346103e1576003196080368201126103e157610251610e53565b9260249167ffffffffffffffff9083356044358381116103e1576102789036908601610f68565b9190976064358581116103e1576102929036908801610f68565b94909161029d61114f565b89516102a881610efa565b5f81526001600160a01b039180831691821561055c57865f52602091600283528d888587835f205416801515938461052b575b825f5260038852805f2060018154019055835f52600288525f20826001600160601b0360a01b8254161790557fddf252ad1be2c89b69c2b068fc378daa952ba7f163c4a11628f55a4df523b3ef5f80a4610515573b6103e5575b5050507f00000000000000000000000000000000000000000000000000000000000000001694853b156103e15789519a8b958695630a058fcf60e01b87528a8701528a860160609052606486019061038c9261112f565b9184830301604485015261039f9261112f565b03815a5f948591f180156103d7576103b5578580f35b90919293809550116103c657505052005b604190634e487b7160e01b5f52525ffd5b84513d5f823e3d90fd5b5f80fd5b996104358c9f9a98969492829f9a9896949e9d9c8f8f839f5f919082915196879586948593630a85bd0160e11b9b8c865233908601528401528d6044840152608060648401526084830190610ea0565b03925af15f91816104d5575b50610499578f8f8f8f8f3d15610491573d9061045c82610f4c565b9161046984519384610f2a565b82523d5f8284013e5b8151918261048e575050505191633250574960e11b8352820152fd5b01fd5b606090610472565b9091939597999e9b9c929496989d9a5063ffffffff60e01b16036104c057505f8080610335565b888a918c5191633250574960e11b8352820152fd5b9091508c81813d831161050e575b6104ed8183610f2a565b810103126103e157516001600160e01b0319811681036103e157905f610441565b503d6104e3565b508c516339e3563760e11b81525f818d01528c90fd5b5f84815260046020526040812080546001600160a01b03191690558281526003895281902080545f190190556102db565b8c51633250574960e11b81525f818d01528c90fd5b5090346103e157602090816003193601126103e15782356105918161117b565b506009546001600160a01b031693841561066d579060245f928451968793849263c87b56dd60e01b84528301525afa928315610663575f936105e6575b506105e29051928284938452830190610ea0565b0390f35b9092503d805f833e6105f88183610f2a565b81019082818303126103e15780519067ffffffffffffffff82116103e157019080601f830112156103e15781519161062f83610f4c565b9161063c86519384610f2a565b8383528484830101116103e1576105e29261065c91858085019101610e7f565b92906105ce565b50513d5f823e3d90fd5b825163472876d960e11b8152fd5b5090346103e15760803660031901126103e157610696610e53565b61069e610e69565b604435916064359467ffffffffffffffff86116103e157366023870112156103e1578501356106d86106cf82610f4c565b95519586610f2a565b80855236602482880101116103e1576020815f92602461070c99018389013786010152610706838383610f96565b336111b5565b005b5090346103e157806003193601126103e157610728610e53565b90602435918215158093036103e15733156107b0576001600160a01b031692831561079b5750335f526005602052805f20835f52602052805f2060ff1981541660ff8416179055519081527f17307eab39ab6107e8899845ad3d59bd9653f200f220920489ca2b5937696c3160203392a3005b836024925191630b61174360e31b8352820152fd5b815163a9fbf51f60e01b81525f81860152602490fd5b5090346103e1575f3660031901126103e1578051905f90600191600154928360011c90600185169485156108cc575b60209586841081146108b95783885287949392918790821561089757505060011461083c575b50506105e2929161082d910385610f2a565b51928284938452830190610ea0565b9085925060015f527fb10e2d527612073b26eecdfd717e6a320cf44b4afac2b0732d9fcbe2b7fa0cf6915f925b82841061087f575050508201018161082d61081b565b8054848a018601528895508794909301928101610869565b60ff19168682015292151560051b8501909201925083915061082d905061081b565b602289634e487b7160e01b5f525260245ffd5b91607f16916107f5565b82346103e1575f3660031901126103e15760085490516001600160a01b039091168152602090f35b82346103e1575f3660031901126103e15760095490516001600160a01b039091168152602090f35b346103e1575f3660031901126103e15761093e61114f565b600880546001600160a01b031981169091555f906001600160a01b03167f8be0079c531659141344cd1fd0a4f28419497f9722a3daafe3b4186f6b6457e08280a3005b5090346103e15760203660031901126103e1576001600160a01b036109a4610e53565b1680156109c057602092505f5260038252805f20549051908152f35b81516322718ad960e21b81525f81850152602490fd5b5090346103e15760203660031901126103e1576109f56020923561117b565b90516001600160a01b039091168152f35b346103e15760203660031901126103e157610a1f610e53565b610a2761114f565b600980546001600160a01b0319166001600160a01b0392909216919091179055005b82346103e15761070c90610a5c36610ec5565b91925192610a6984610efa565b5f8452610706838383610f96565b5090346103e157806003193601126103e1576024359082355f526007602052805f20549260018060a01b038085169460a01c908515610afe575b506001600160601b031692838102938185041490151715610aeb5750516001600160a01b0392909216825261271090046020820152604090f35b601190634e487b7160e01b5f525260245ffd5b600654908116955060a01c90506001600160601b03610ab1565b346103e15761070c610b2936610ec5565b91610f96565b5090346103e157806003193601126103e157610b49610e53565b91602435610b568161117b565b33151580610bf8575b80610bd1575b610bbb576001600160a01b039485169482918691167f8c5be1e5ebec7d5bd14f71427d1e84f3dd0314c0f7b2291e5b200ac8c7c3b9255f80a45f526020525f20906001600160601b0360a01b8254161790555f80f35b835163a9fbf51f60e01b81523381850152602490fd5b5060018060a01b0381165f526005602052835f20335f5260205260ff845f20541615610b65565b506001600160a01b038116331415610b5f565b5090346103e15760203660031901126103e1578160209235610c2c8161117b565b505f52825260018060a01b03815f2054169051908152f35b5090346103e1575f3660031901126103e1578051905f905f549160018360011c9060018516948515610d01575b60209586841081146108b957838852879493929187908215610897575050600114610ca85750506105e2929161082d910385610f2a565b5f80805286935091907f290decd9548b62a8d60345a988386fc84ba6bc95484008f6362f93160ef3e5635b828410610ce9575050508201018161082d61081b565b8054848a018601528895508794909301928101610cd3565b91607f1691610c71565b50346103e157816003193601126103e157610d24610e53565b90602435916001600160601b0383168084036103e157610d4261114f565b61271090818111610db45750506001600160a01b0316928315610d9e5767ffffffffffffffff8151918201918210911117610d8b575060a01b6001600160a01b03191617600655005b604190634e487b7160e01b5f525260245ffd5b905f6024925191635b6cc80560e11b8352820152fd5b8551636f483d0960e01b815293840152602483015250604490fd5b82346103e15760203660031901126103e157359063ffffffff60e01b82168092036103e15760209163152a902d60e11b8114908115610e10575b5015158152f35b6380ac58cd60e01b811491508115610e42575b8115610e31575b5083610e09565b6301ffc9a760e01b14905083610e2a565b635b5e139f60e01b81149150610e23565b600435906001600160a01b03821682036103e157565b602435906001600160a01b03821682036103e157565b5f5b838110610e905750505f910152565b8181015183820152602001610e81565b90602091610eb981518092818552858086019101610e7f565b601f01601f1916010190565b60609060031901126103e1576001600160a01b039060043582811681036103e1579160243590811681036103e1579060443590565b6020810190811067ffffffffffffffff821117610f1657604052565b634e487b7160e01b5f52604160045260245ffd5b90601f8019910116810190811067ffffffffffffffff821117610f1657604052565b67ffffffffffffffff8111610f1657601f01601f191660200190565b9181601f840112156103e15782359167ffffffffffffffff83116103e157602083818601950101116103e157565b6001600160a01b03918216929091831561111757815f52602092600284528260409583875f2054169533151580611082575b5060029087611051575b825f5260038152885f2060018154019055835f5252865f20816001600160601b0360a01b825416179055857fddf252ad1be2c89b69c2b068fc378daa952ba7f163c4a11628f55a4df523b3ef5f80a416928383036110305750505050565b6064945051926364283d7b60e01b8452600484015260248301526044820152fd5b5f84815260046020526040812080546001600160a01b03191690558881526003825289902080545f19019055610fd2565b91925090806110d6575b1561109a579084915f610fc8565b8685876110b7576024915190637e27328960e01b82526004820152fd5b905163177e802f60e01b81523360048201526024810191909152604490fd5b5033861480156110fb575b8061108c5750845f52600481523384885f2054161461108c565b50855f5260058152865f20335f52815260ff875f2054166110e1565b604051633250574960e11b81525f6004820152602490fd5b908060209392818452848401375f828201840152601f01601f1916010190565b6008546001600160a01b0316330361116357565b60405163118cdaa760e01b8152336004820152602490fd5b5f818152600260205260409020546001600160a01b031690811561119d575090565b60249060405190637e27328960e01b82526004820152fd5b9293909193843b6111c8575b5050505050565b604051630a85bd0160e11b8082526001600160a01b03958616600483015293851660248201526044810191909152608060648201526020959490931693929085908290819061121b906084830190610ea0565b03815f885af15f91816112bf575b50611288575050503d5f14611280573d9161124383610f4c565b926112516040519485610f2a565b83523d5f8285013e5b8251928361127b57604051633250574960e11b815260048101849052602490fd5b019050fd5b60609161125a565b9193506001600160e01b0319909116036112a757505f808080806111c1565b60249060405190633250574960e11b82526004820152fd5b9091508581813d83116112f8575b6112d78183610f2a565b810103126103e157516001600160e01b0319811681036103e157905f611229565b503d6112cd56fea2646970667358221220540cc934b7be8c634884766a01d0808a05e66f3838819b12d8a1183dbc2e05c764736f6c63430008180033","linkReferences":{}},"methodIdentifiers":{"approve(address,uint256)":"095ea7b3","balanceOf(address)":"70a08231","chromaStorage()":"e6b5e237","getApproved(uint256)":"081812fc","isApprovedForAll(address,address)":"e985e9c5","mint(address,uint256,bytes,bytes)":"dcdc7dd0","name()":"06fdde03","owner()":"8da5cb5b","ownerOf(uint256)":"6352211e","renderer()":"8ada6b0f","renounceOwnership()":"715018a6","royaltyInfo(uint256,uint256)":"2a55205a","safeTransferFrom(address,address,uint256)":"42842e0e","safeTransferFrom(address,address,uint256,bytes)":"b88d4fde","setApprovalForAll(address,bool)":"a22cb465","setDefaultRoyalty(address,uint96)":"04634d8d","setRenderer(address)":"56d3163d","supportsInterface(bytes4)":"01ffc9a7","symbol()":"95d89b41","tokenURI(uint256)":"c87b56dd","transferFrom(address,address,uint256)":"23b872dd","transferOwnership(address)":"f2fde38b"},"id":0}